:020000040800F2
:10000000680A0020ED0100088F4F0008174900081A
:100010008D4F00081D0B00086963000800000000F8
:10002000000000000000000000000000D55700089C
:10003000010C0008000000001551000839580008A4
:10004000070200080702000807020008070200086C
:10005000070200080702000807020008070200085C
:10006000070200080702000807020008850B0008C5
:10007000070200080702000807020008070200083C
:10008000070200080000000007020008070200083D
:10009000070200080702000807020008070200081C
:1000A000070200080702000807020008070200080C
:1000B000B1580008070200080702000807020008FC
:1000C00007020008070200080702000807020008EC
:1000D00007020008070200080702000807020008DC
:1000E00007020008070200080702000807020008CC
:1000F00007020008070200080702000800000000CD
:1001000000000000070200080000000007020008CD
:100110000702000800000000BD580008C958000888
:10012000070200080702000807020008070200088B
:10013000070200080000000000000000070200089D
:10014000070200080702000800000000000000008D
:10015000000000000000000000000000000000009F
:10016000000000000000000000000000070200087E
:10017000070200080000000000000000000000006E
:10018000000000000702000800000000000000005E
:10019000000000000000000000000000000000005F
:1001A000000000000000000007020008070200082D
:1001B000070200080702000807020008000000000C
:1001C000000000000702000800000000000000001E
:1001D0000702000807020008DFF80CD000F07EFBE1
:1001E00000480047817F0008680A002006488047D1
:1001F00006480047FEE7FEE7FEE7FEE7FEE7FEE70C
:10020000FEE7FEE7FEE7FEE7A1580008D901000877
:100210002DE9F05F0546002092469B46884606463B
:10022000814640241BE0284641464746224600F0CE
:1002300068FA53465A46C01A914110D311461846DF
:10024000224600F04FFA2D1A67EB01084F4622466E
:100250000120002100F046FA17EB00094E41201E54
:10026000A4F10104DFDC484631462A464346BDE896
:10027000F09F40EA01039B0703D009E008C9121F61
:1002800008C0042AFAD203E011F8013B00F8013B50
:10029000521EF9D27047D2B201E000F8012B491E7C
:1002A000FBD270470022F6E710B513460A46044613
:1002B0001946FFF7F0FF204610BD2DE9FE4F80469E
:1002C00081EA0300C00F0C46009021F0004123F0AA
:1002D0000045B8EB0200A94105D2404621469046B0
:1002E0001C460B46024623F00040104347D0270D22
:1002F000C7F30A00C3F30A510290401A0190402844
:100300006BDAC3F3130040F4801B0098924620B1CF
:100310000023D2EB030A63EB0B0B01985946C0F1A3
:100320004002504600F0DEF906460D46504659465A
:10033000019A00F0F6F910EB08006141002487EA09
:10034000115284EAE7731A4340D0009A62B3019ACB
:10035000012A4FEA075215DC001B61EB02014FF046
:10036000004202EA0752CDE90042001C41F580112B
:1003700032462B4600F04BFA03B0BDE8F08F404602
:100380002146F9E7001B61EB0201001C41F58013D7
:1003900000185B412018A2F5001747EB030140EA63
:1003A000D570B6196D4111E06D084FEA360645EA81
:1003B000C0754FEA0752001B61EB0201001C41F5BA
:1003C000801149084FEA30000019514132462B464E
:1003D00003B0BDE8F04F00F00BBA009801224000D6
:1003E0000023D0EB020263EBE073009821464FEA52
:1003F000E074B8EB000061EB0401E9E783F000432F
:100400005BE781F0004158E72DE9FE4F81EA0304E4
:1004100004F0004421F0004100944FF0000B23F061
:10042000004350EA01045ED052EA03045BD0C3F3F8
:100430000A54C1F30A552C44A4F2F3340194A0FBEE
:100440000254C1F3130141F48011C3F3130343F4C5
:10045000801301FB024400FB034E840A970A44EA1E
:10046000815447EA8357A4FB076802958D0A05FB70
:1004700007854FEA932C04FB0C542705029D4FEA95
:10048000065847EA1637B5EB08056EEB070C870EE2
:10049000920E47EA811742EA8312A7FB0201B6EBEC
:1004A0000B0164EB00042B0D43EA0C335E1844EBA4
:1004B0001C50DA465146E7FB0201C5F313044FEA2C
:1004C0000B3343EA14534FEA0432019C43EA060318
:1004D000A4F10C040294009CCDE900B400F097F95B
:1004E00003B0BDE8F08F00200146F9E72DE9F04D9B
:1004F00081EA030404F0004B21F0004514464FF05C
:10050000000A23F0004150EA050220D054EA01021B
:100510001DD0C5F30A570246C5F31303C1F31300F8
:10052000C1F30A5640F4801543F48013A7EB060884
:10053000101BD64608F2FD3873EB050002D308F114
:10054000010801E092185B41B8F1000F03DA0020C6
:100550000146BDE8F08D00204FF480110646844628
:100560000EE0171B73EB050705D3121B63EB0503A6
:1005700006434CEA010C49084FEA300092185B41EF
:1005800050EA0107EDD152EA030012D082EA0400DA
:1005900083EA0501084305D0101BAB4106D20122B6
:1005A000002306E000224FF0004302E06FF001025A
:1005B00053101AEB06004CEB085110EB0A0041EB0C
:1005C0000B01BDE8F04D00F013B90EB5C10F80EA84
:1005D000E0700844CA07002140F233438DE80E0062
:1005E0000A460B4600F013F903B000BD70B5C1F325
:1005F0000A5201F000450024C1F3130140F2FF3319
:1006000041F480119A4201DA002070BD40F2334378
:100610009A42A2F2334203DC524200F072F800E048
:1006200090402C43F1D0404270BD00F0004230F0C9
:1006300000400AD0C10D01F56071C0F3160042EA16
:100640000151C2084007114370470020014670471E
:1006500030B5041E71F1000404DB4FF00044404249
:1006600064EB0101141E73F1000405DB1C464FF01E
:100670000043524263EB0403994208BF904230BDED
:1006800001F0004330B421F0004150EA010206D0ED
:100690000A0DA2F56072C1F31301002A02DC30BC1E
:1006A00000207047440F44EAC104C100E01830BC88
:1006B00000EBC25000F047B830B50B4601460020B1
:1006C0002022012409E021FA02F59D4205D303FA14
:1006D00002F5491B04FA02F52844151EA2F1010295
:1006E000F1DC30BD202A04DB203A00FA02F10020C0
:1006F00070479140C2F1200320FA03F31943904060
:100700007047202A04DB203A21FA02F000217047CA
:1007100021FA02F3D040C2F1200291400843194669
:100720007047202A06DBCB17203A41FA02F043EA51
:10073000E07306E041FA02F3D040C2F1200291409A
:100740000843194670470029A8BF7047401C49005C
:1007500008BF20F00100704710B4B0FA80FC00FA26
:100760000CF050EA010404BF10BC704749B1CCF151
:10077000200421FA04F411FA0CF118BF01212143DD
:100780000843A3EB0C01CB1D4FEA00614FEA102098
:1007900042BF002010BC704700EBC350104400293A
:1007A000A4BF10BC7047401C490008BF20F00100E6
:1007B00010BC704710B541000CD0C0F3C75196294A
:1007C00008DC7E2909DC06DB410204D000F0004091
:1007D00040F07E5010BD002010BDC1F19604C4F160
:1007E000200100FA01F1E040FFF7ADFFA04010BD8D
:1007F00010B5141E73F1000408DA401C41F1000129
:1008000092185B411A4301D120F0010010BD2DE97F
:10081000F04D92469B4611B1B1FA81F202E0B0FA76
:1008200080F220329046FFF75DFF04460F4640EA13
:100830000A0041EA0B0153465A46084313D01146B9
:1008400053EA010019D0C8F140025046FFF759FFA2
:1008500005460E46504659464246FFF743FF0843B9
:1008600005D0012004E020463946BDE8F08D002087
:10087000054346EAE0762C4337430A986305E40AC9
:10088000A0EB08000022FD0A44EA47540A3002D5D2
:1008900000200146E9E7010510196941DDE9084535
:1008A00000196941BDE8F04DA2E7C1F30A52C1F356
:1008B000130140F2FF3341F480119A4202DA002022
:1008C0000146704740F233439A42A2F2334202DCBF
:1008D0005242FFF716BFFFF705BF0000064C074D59
:1008E00006E0E06840F0010394E807009847103400
:1008F000AC42F6D3FFF774FCE888000808890008CA
:100900000EB540F2334102910021CDE900110A46B3
:100910000B46FFF77CFF03B000BD00002DE9F0415E
:10092000044600270D46006804F00EF806462068CD
:1009300004F002F830435DD02068C1682E4E890172
:1009400005D5617F012902D1217F01290BD0022D1C
:100950001DD0206803F0F8FFB8B120688168C1F3AA
:10096000400169B111E00125244902E08F4232D2F1
:100970007F1C0268D2435206F8D440210160E8E7A8
:100980008168314041F010018160012D11D0206853
:1009900003F0D2FF48B120688168C1F3400121B95A
:1009A0008168314041F020018160022D08D0032D83
:1009B00004D0042502F082F8064617E00C25F9E77A
:1009C0000825F7E702F07AF8801B05280ED9206881
:1009D000806828420AD0E06D40F01000E065206E8B
:1009E00040F0010020660120BDE8F08120688068A9
:1009F0002842E7D10020F7E7C0FFFF7F000040A3B7
:100A000070B50446006881688268C1F3400112F045
:100A1000010F28D039BB816801F00D01012914D1E3
:100A20008168124A1140891C816021680320086096
:100A300002F044F8054612E002F040F8401B02289C
:100A40000DD920688068C00709D0E06D40F0100023
:100A5000E065206E40F001002066012070BD206836
:100A60008068C007E8D1002070BD0000C0FFFF7F94
:100A7000F8B50446002000902068816811F0010F4D
:100A800041D18168214A11422ED18168D543294044
:100A9000491C81601E48806800F0E07000020DD59E
:100AA0001C481D490068B0FBF1F0401C00EB400001
:100AB000800000E0401E00900028FBD101F0FEFF06
:100AC00006461BE0816811F0010F03D181682940BF
:100AD000491C816001F0F2FF801B02280ED92068BA
:100AE0000068C043C00709D0E06D40F01000E06529
:100AF000206E40F0010020660120F8BD20680168EA
:100B0000C943C907DED10020F8BD00003F000080C6
:100B10000003005030000020400D0300FEE70000FD
:100B200010B505F0D9FB04F057FE0B4C0B48D4ED83
:100B3000140A94ED130A04F02BFA84ED120AF0EE75
:100B4000400A94ED110A064804F022FAB1EE400A78
:100B500084ED0F0A10BD0000E005002068050020AC
:100B60002005002006489FED050A80ED110A80ED62
:100B7000120A80ED130A80ED140A7047000000008D
:100B8000E0050020014801F0C2BC0000280100205F
:100B900010B501680E4CCAB21423083AA14203D220
:100BA000B2FBF3F20B4904E0B2FBF3F20949203146
:100BB000921D436C02F01F0223F003031944816469
:100BC00004498031C16401219140016510BD0000DC
:100BD00008040240000802400179084A01F07F0140
:100BE00002EB81024265054A4432491E826501F0EA
:100BF0001F0201219140C16570470000FC080240BE
:100C0000704772B6FEE70000144A117F14480129AC
:100C100001D003290FD1036823F400730360036834
:100C200043F400630360036823F400630360036814
:100C300043F400730360022901D003290BD101683A
:100C400041F480510160016821F480510160016824
:100C500041F480610160002010777047100000208F
:100C600000200240C107054803D0416941F004015A
:100C70004161416941F48031416170470020024087
:100C800008494A69C0B222F4FC7242EAC0004861D5
:100C9000486940F002004861486940F4803048618A
:100CA0007047000000200240054910B54C6944F02F
:100CB00001044C610260BFF36F8F436010BD000000
:100CC00000200240094A10B55469402344F48024AE
:100CD0005461EFF3108272B610C95B1E10C013F09E
:100CE000FF03F9D182F3108810BD000000200240FC
:100CF00070B5064601F0E2FE0546134C07E000BF62
:100D000001F0DCFE401BB04201D9032070BD206918
:100D1000C003F5D420694CF2FA3108400CD00B49DD
:100D20004A6802434A60810F01D0A169A161810034
:100D300000D02061012070BD2069C00701D00120D2
:100D40002061002070BD0000002002401000002043
:100D50002DE9F04F2DED088B8FB08E4800F04EFC42
:100D60007F218D4800F040FD7F218C4800F03CFD44
:100D70000A2001F08BFC3C216846FFF793FAA02083
:100D800000240A9080200B9085484FF0090ACDE995
:100D9000000A8DF8244003278DF8254008978DF828
:100DA00026408DF830404FF07F084FF00409CDE920
:100DB0000494CDE902786946774800F05FFD7948F0
:100DC00040F20F158DE8A1006946734800F056FD0A
:100DD000754840F215268DE8C10069466E4800F05E
:100DE0004DFD0A9471480B94CDE9000A4FF0010BB8
:100DF000CDF820B08DF82440CDE90494CDE90278F7
:100E00006946664800F03AFD634801F055F89FEDE9
:100E1000688AB0EE481AF0EE480AB0EE480A07F0C9
:100E200061F94FF4967001F031FC5C4801F0D6FA9C
:100E3000F0EE488AB0EE489AF0EE489A9FED5DAA2F
:100E4000DFED5DAA012001F021FC544801F034F8E7
:100E50000A21524800F0B6FF78B909214F4800F046
:100E600099FF00EE100AF8EE400A80EE8A0AF2EED0
:100E7000010A20EE2A0A40EE209A0921464800F095
:100E800089FF0BEE900A2946434800F083FF0BEEE2
:100E9000100A3146404800F07DFFF8EE6B0A641CF2
:100EA000C82C80EE8A0AF8EE4B0A40EE2A8A80EEC1
:100EB0008A0A00EE2A8A00EE100AF8EE400A80EE56
:100EC0008A0A00EE2A9ABDDB344801F069F83348FB
:100ED00001F0FEFA9FED390A9FED391A2D4CC9EE4B
:100EE000800A384970EE810A10EE900AC4ED190AA2
:100EF000884203DAF2EE080AC4ED190AC8EE800A45
:100F0000C4ED050AC8EE000AC4ED060AC9EE000ADF
:100F1000C4ED070A606EFFF788FB41EC100B2AA0B6
:100F200053EC102B05F022FA00F008FC3148417810
:100F300001290BD0022909D02FA005F017FA00F0E3
:100F400089F80FB0BDEC088BBDE8F08F90ED0A0A70
:100F500084ED1C0A90F8241009B1012101E04FF042
:100F6000FF31E16690ED070A84ED1D0AC16AA166B2
:100F700094ED190A2D4980ED050AB1EE400A80ED85
:100F8000060A81F802B02AA005F0F0F904F0C4F8CE
:100F9000D7E70000E005002050000020BC00002042
:100FA000040060081000C0100800900C00005247B8
:100FB0000000000000F07F453333534000004843F9
:100FC0000AD7233D0000A040506F7765722053750B
:100FD00070706C7920566F6C746167652043616C2A
:100FE000696272617465643A20252E3266560D0A74
:100FF00000000000B0050020466C61736820656D3C
:10100000707479206F7220636F727275707465648A
:101010002C205354415254494E472063616C6962FD
:10102000726174696F6E2E2E2E0D0A00360000203C
:10103000466C6173682064617461204C4F41444583
:1010400044207375636365737366756C6C792E0DDC
:101050000A0000002DE9F047FF482DED0E8BE4B0AB
:10106000017800297BD04178002978D181468170B0
:101070009FEDFABAFA4EB7EE08DA86ED1DBADFED4B
:10108000F9DAF0EE4B0AB7EE080AB0EE6D1A07F087
:1010900029F84FF4FA7001F0F9FAF0EE4B8AB0EE4D
:1010A0004B8A002403F09CFC10EE105A2846FFF7F0
:1010B000BCFA41EC100B05F0ABFCB0EE409AF0EE40
:1010C000609A18EE900AFFF7B0FA53EC192BFFF76D
:1010D000F4F8FFF7D5FA08EE900A2846FFF7A5FACC
:1010E00041EC100B05F0E0FBB0EE409AF0EE609A98
:1010F00018EE100AFFF799FA53EC192BFFF7DDF8F9
:10110000FFF7BEFA08EE100A012001F0BFFA641CD6
:10111000642CC7DB18EE100AFFF787FA41EC190BB5
:1011200018EE900AFFF781FA41EC100BB0EE491A65
:10113000F0EE691A05F0C0FA51EC100BFFF7A0FAB7
:101140000AEE100ADFEDC8AAB5EEC0AAF1EE10FA59
:1011500001D23AEE2AAA00248DED00AA00E003E2B3
:10116000C2A005F003F9DFEDD1BA9FEDD1CBF0EECF
:101170004B8AE8460125B0EE688A641C00EE105ADE
:10118000B8EEC00A60EE2A0A80EEAB0A10EE100A32
:10119000FFF74BFAB0EE4C1AF0EE6C1A53EC112B31
:1011A000FFF78BF8FFF76CFA01EE100AF0EE480A31
:1011B000B7EE080A06F096FF012001F067FA6D1CF1
:1011C0007D2DDBDDB0EE6D1AF0EE480AB7EE080AB1
:1011D00006F088FF4FF4967001F058FAB0EE48EA36
:1011E0005FF0000503F0FCFB10EE107A3846FFF7C5
:1011F0001CFA41EC100B05F00BFCB0EE409AF0EE3F
:10120000609A18EE100AFFF710FA53EC192BFFF74B
:1012100054F8FFF735FA08EE100A3846FFF705FADA
:1012200041EC100B05F040FBB0EE409AF0EE609AF6
:101230001EEE100AFFF7F9F953EC192BFFF73DF8F2
:10124000FFF71EFA0EEE100A012001F01FFA6D1CC6
:10125000642DC7DB1EEE100AFFF7E7F941EC190B0E
:1012600018EE100AFFF7E1F941EC100BB0EE491A45
:10127000F0EE691A05F020FA51EC100BFFF700FAB6
:1012800000EE900AF5EEC00AF1EE10FA01D270EE0F
:10129000AA0A08EB84008849C0ED000A30EECA0AA9
:1012A000454610EE100A884202DD30EE6A0A06E07A
:1012B00010EE100A8149884201D930EE2A0AB0EEB8
:1012C00060AA3BEE00BAB0EEC00A10EE100AFFF7BB
:1012D000ACF99FED7B1B53EC112BFFF795F89FEDBD
:1012E0007A1B53EC112BFFF78CF841EC190BB0EE85
:1012F000CB0A10EE100AFFF798F953EC192BFFF701
:10130000A7F902D9632CFFF635AFB0EE680AB0EE4C
:10131000401AF0EE400A06F0E5FEC82001F0B6F9EA
:10132000B0EECB0A10EE100A4FF0FF3AB0F17C5F3E
:1013300003DA67A005F01AF809E0B5EEC0BAF1EEDD
:1013400010FA01DD012000E05046C6E91A40F06EB7
:10135000012808D05FF00004B0EE689AB0EE688A09
:101360000027B04649E00124F6E700BF98ED1B0ACC
:1013700005EB8700B8EEC00AD0ED000A60EE200A47
:1013800000EE101AB8EEC00A20EE800A06F00AF944
:1013900010EE106A3046FFF748F941EC100B05F0EB
:1013A00037FBB0EE401AF0EE601AB0EE41BAF0EE44
:1013B00061BA18EE900AFFF738F953EC1B2BFEF7D1
:1013C0007CFFFFF75DF908EE900A3046FFF72DF934
:1013D00041EC100B05F068FAB0EE40BAF0EE60BADE
:1013E00018EE100AFFF721F953EC1B2BFEF765FFEF
:1013F000FFF746F908EE100A7F1CD8F86810B942CA
:10140000B4DA18EE100AFFF710F941EC1B0B18EED6
:10141000900AFFF70AF941EC100BB0EE4B1AF0EE10
:101420006B1A05F049F951EC100BFFF729F900EEA2
:10143000100A414688ED1C0AB5EEC00AF1EE10FA1A
:1014400003D230EE2A0A81ED1C0A012289F802201B
:1014500091ED1D0A2E485DE03600002000000000DE
:10146000E0050020E4CB9640DB0FC94043616C6986
:1014700062726174696F6E3A204472616767696E67
:1014800067206D6F746F7220756E74696C203120E7
:1014900066756C6C206D656368616E6963616C2054
:1014A0007265762E2E2E0D0A000000000000FA4212
:1014B000320D337F7CD91240DB0F4940DB0F49C02E
:1014C000000000000000E03F00000060FB21194028
:1014D00043616C6962726174696F6E205761726EEC
:1014E000696E673A204D6F746F7220626C6F636B28
:1014F0006564206F72206E6F74206D6F76696E6701
:101500002070726F7065726C79210D0A0000000006
:10151000B005002080ED070A80ED08DA80F824404D
:1015200091ED1C0A80ED0A0A8B6EC36280ED019A70
:10153000B7EE000A80ED020A80ED039A80ED049A6E
:1015400091ED190A80ED050AB1EE400A80ED060A18
:1015500082700CB1012300E05346C8F86C30427031
:1015600000F010F903F0D8FD64B0BDEC0E8BBDE8BF
:10157000F087000030B586B00B4600281CD0002B49
:101580001AD00E49DFED0E1A34C98DE8340016C9A1
:1015900003ADF0EE610A85E81600B0EE610A6A4616
:1015A000002103F089FDF0EE610AB0EE610A03AAA2
:1015B0000021184603F080FD06B030BDF886000813
:1015C00000007A440B4A00B5B0EE603AF0EE400AF3
:1015D00092ED0E0A084803F0DBFC074882ED0C0A86
:1015E00092ED0D0AF0EE430A483803F0D1FC82ED8B
:1015F0000B0A00BDE0050020D804002000282FD0F1
:10160000F2EE080A9FED170A072180ED040A80ED2B
:10161000030A80ED020A80ED070A80ED060A80EDDC
:10162000050A80ED0A0A80ED090A80ED080A80EDBE
:101630000C0A80ED0B0A80ED0E0A80ED0D0A80ED9C
:10164000160A80ED150A80ED180A80ED170AC0ED24
:10165000190A81660121C16680ED1C0A80ED1D0A10
:1016600070470000000000000EB500280BD0064BAC
:10167000F2EE040A9FED050A0ECB8DE80E006A46D5
:10168000002103F019FD0EBD1C8700080000F04288
:101690000EB500280BD0064BF7EE000AB3EE040A95
:1016A0000ECB8DE80E006A46002103F005FD0EBD4D
:1016B000108700081E4810B5016841F28832491CA5
:1016C000016091420AD3002101601A4C802120461A
:1016D00001F0E6F94021204601F0E2F903F080F93B
:1016E000154C84ED000AD4ED1B0AF8EEE00A60EE1A
:1016F000800A94ED1A0AB8EEC01A94ED1C0A10EE96
:10170000810A05F04FFF84ED010A06F0C5FDD4ED16
:101710000F0A94ED100AFFF755FF94ED011AD4ED6E
:101720000C0A94ED0B0ABDE8104006F0DBBC00008B
:101730004800002000040048E005002010B53021DA
:101740000748FEF7AFFD03F0E7F818B1BDE8104019
:1017500000F008B802485D2101700021417010BD01
:10176000B005002010B503F0D7F8002805D03022CE
:1017700002490348FEF77DFD012010BD00F8010875
:10178000B0050020F0B585B001F05CF800200490B1
:10179000009001203F21CDE90101039004A9684692
:1017A00000F086FF78B90E495D200E4D06270870BF
:1017B0000E46002406EBC4002946D0E90023002091
:1017C00000F0EEFF20B100F0DDFF002005B0F0BD1D
:1017D000641C0835BC42EDD300F0D4FF0120F5E7CE
:1017E000B005002000F80108F8B500260446009670
:1017F00090F858000D4601280BD0012084F85800BD
:101800002046FFF7FDF80100E06D04D040F0100025
:101810002AE00220F8BD20F4885040F00200E06584
:1018200020688268134B1A4005F080431A4342F047
:1018300000428260104A20680EE0009B5B1C00930F
:10184000934209D3E06D20F0020040F01000E06503
:1018500084F858600120F8BD8368DB0FEDD1E06D9E
:1018600020F0020040F00100E06584F8586008466E
:10187000F8BD0000C0FFFF3F02DE04002DE9F84F75
:101880004FF000080446CDF800800D4694F858202B
:10189000DFF8EC93616947464046012A0AD00126E9
:1018A000F84A84F8586041B1296A012905D0A36E2D
:1018B000EBB129E00220BDE8F88F6868092838D12B
:1018C000A96A4FF4785041B12B6801F07C0100EA1D
:1018D00053400843E96A084302E0296800EA51409E
:1018E0002168CB6C13400343CB64606621E0C4E9FC
:1018F0001971A96A286A31B101F07C01401E0843C0
:10190000E96A084300E0401E29682B79C1F384612D
:1019100003F01F0399400143A06E401EA066636E52
:1019200043EA0103636604D12068C16C1140194386
:10193000C164206803F004F858B995F8250098B1FF
:101940002068C16895F8262021F4401141EA4251EF
:10195000C160206802F0FCFF8246206802F0F0FFC0
:101960005AEA00000DD0FBE095F8260095F8241007
:10197000400540EA01512068C26822F44012114338
:10198000E6E7A86A30B1E86A20B195F82500012899
:101990005ED003E095F82500012804D02068C168D6
:1019A00021F0007103E02068C16841F00071C1605E
:1019B00095F83000012852D02068016921F0020119
:1019C0000161AA6829682068B2F1004F38D002F09E
:1019D000C3FF2068416921F00041416120686969C5
:1019E000C268C2F3C102520091402A69042A44D05D
:1019F00000EB82002B68026EDFF88CC203F0F84324
:101A000002EA0C020B431A4342F0004101662068CF
:101A10002A69A96900EB8200026E22F080720A43F3
:101A20000266297F22682869012923D05FF000011E
:101A300002EB8000026E22F000720A4302668FE021
:101A4000002202F089FF2068416941F00041C4E7AB
:101A5000E06D40F02000E0654FF00108A8E7D5E90F
:101A60000D1001432068026922F4FF7242F0020265
:101A70001143A5E74FF00071DAE7002102F056FFAD
:101A8000400320684FF0000172D002F04FFF90FA3F
:101A9000A0F0B0FA80F1286842036ED090FAA0F06E
:101AA000B0FA80F0814204D100221146206802F091
:101AB00062FF0121206802F039FF400320684FF0E7
:101AC00001015DD002F032FF90FAA0F0B0FA80F18F
:101AD0002868420359D090FAA0F0B0FA80F0814211
:101AE00004D100220121206802F045FF0221206874
:101AF00002F01CFF400320684FF0020148D002F0C2
:101B000015FF90FAA0F0B0FA80F12868420344D0A3
:101B100090FAA0F0B0FA80F0814204D100220221B4
:101B2000206802F028FF0321206802F0FFFE400336
:101B300020684FF0030133D002F0F8FE90FAA0F0D5
:101B4000B0FA80F1286842032FD090FAA0F0B0FAE2
:101B500080F0814204D100220321206802F00BFFB3
:101B60002068816811F0010F22D0B6E000E004E0A7
:101B700002F0DCFEC0F384618DE7C0F3846091E77E
:101B800002F0D4FEC0F38461A2E7C0F38460A6E74C
:101B900002F0CCFEC0F38461B7E7C0F38460BBE71A
:101BA00002F0C4FEC0F38461CCE7C0F38460D0E7E8
:101BB0002A7B296850F8B03FC1F3120C23EA0C03CA
:101BC00002F0180C314A22FA0CF20A401343036067
:101BD000E96849457ED1286841031CD090FAA0F1FC
:101BE000B1FA81F1491C01F01F0109294FEA403186
:101BF00032D8002912D000BF90FAA0F1B1FA81F1D9
:101C000001F1010101F01F0106FA01F609D100BF3F
:101C1000C0F3846109E0C0F38461E3E7C0F3846149
:101C2000EEE790FAA0F1B1FA81F101F1010101F0C2
:101C30001F0146EA816102D1C0F3846003E090FA9B
:101C4000A0F0B0FA80F000F1010000F01F0000EBFE
:101C5000400041EA00513AE000290ED090FAA0F18C
:101C6000B1FA81F101F1010101F01F0106FA01F65B
:101C70000ED100BFC0F384610EE0C0F38461F1E7D0
:101C800000007F400040100400F0FF03FFFF07004A
:101C900090FAA0F1B1FA81F101F1010101F01F0107
:101CA00046EA816102D1C0F3846003E090FAA0F0BB
:101CB000B0FA80F000F1010000F01F002B4A00EBA9
:101CC000400002EB005041EA000141F00071AA68B7
:101CD000206800E001E002F03FFE25482A68024249
:101CE00040D024488168244B01F0E0719A4202D030
:101CF000224B9A421BD10B0219D42268B2F1A04F99
:101D000030D1826841F4000122F0E0720A4382601F
:101D10001B481C490068B0FBF1F0801C00EB400040
:101D2000800000E0401E00900028FBD11AE0164D14
:101D3000164BAA4207D1CD0105D422689A4211D090
:101D400041F0807109E0124DAA420BD14A0209D438
:101D500022689A4206D041F48001826822F0E07243
:101D60000A43826084F858704046A4E5000020FED3
:101D70000000088000030050000021C31000C09044
:101D800030000020400D0300000052C70001005049
:101D9000000084CB0068A1F580710F390ED0B1F539
:101DA000837F08D0B1F5037F02D0D0F88000704760
:101DB000D0F88C007047D0F888007047D0F88400C5
:101DC000704700002DE9F041044639480F4680680D
:101DD00000F01F06A069082804D0202500F06EFE40
:101DE000804618E04025F9E7781C14D000F066FE24
:101DF000A0EB0800B84200D86FB9206800682842FC
:101E000009D1E06D40F00400E065002084F858003E
:101E10000320BDE8F081206800682842E4D02168F2
:101E2000C86C10F4C07F0CD00022C86810F4406F5A
:101E300009D000231F4F4FF0A040B94205D184467E
:101E400004E00122F1E70123F4E78C468C450ED033
:101E50006EB1062E0BD0072E09D0B94200D008462D
:101E6000C068E66D46F40056E6653AB901E0C86818
:101E7000F7E7820112D48BB182040FD40A685206AC
:101E80000CD582020AD4E26D22F48052E265E26D42
:101E9000D20503D4E26D42F00102E265402D01D08B
:101EA000202002E0400401D4602008600020B0E758
:101EB00000030050000100502DE9F0410446354870
:101EC000806800F01F05206802F03AFD08BB216819
:101ED000C868C96C00F0004011F4C07F00D190B117
:101EE00094F85800012814D0012084F858002046A6
:101EF000FEF7BEFD02004FF000030CD084F858300E
:101F00001046BDE8F081E06D40F02000E065012062
:101F1000F7E70220F5E7E06DC00504D5206E20F05C
:101F20000800206600E02366E06D42F2010188436C
:101F300040F48050E065184F21684FF0A046B94248
:101F400001D1304600E00846884200D01DB9E06D5E
:101F500020F48010E0656020086084F85830206824
:101F6000B84200D00646864209D045B1062D06D0BB
:101F7000072D04D0E06D40F48010E065C0E7C16833
:101F800011F0007FBCD18168044B194041F0080179
:101F90008160B5E70003005000010050C0FFFF7FE3
:101FA00070B5044690F85800012809D0012084F843
:101FB000580002212046FEF7B1FC050002D014E0D3
:101FC000022070BD206802F0C3FC18B1E06D20F45F
:101FD000805009E02046FEF713FD050005D1E06DB5
:101FE00020F4885040F00100E065002084F858009B
:101FF000284670BD2DE9F047044690F858009CB083
:102000000E464FF00009012815D0012084F8580031
:1020100000251795189520684FF0A04840450ED12F
:10202000284F0097384602F093FC8246206802F061
:102030008FFC60B10EE002201CB0BDE8F087E06DBF
:1020400040F02000E06584F858500120F4E7BAF130
:10205000000F09D0E06D40F02000E0654FF001096D
:1020600084F858504846E7E71748326840F61F7131
:10207000002A826822F4604216D094F8383042EA8E
:10208000433273681A438260D8F80820BB6802F0B4
:10209000010203F001031A43E2D1B36832681A4324
:1020A00083688B431A430BE08260D8F80820BB6832
:1020B00002F0010203F001031A43D1D182688A437E
:1020C0008260CDE70001005000030050F8B54FF0EA
:1020D000000504002E46009502D0E06D10B107E027
:1020E0000120F8BD204600F0EBF8266684F8586021
:1020F00020688168C1F3407119B18168684A114054
:10210000816020688168C1F3007189B98168654A7E
:10211000114041F080518160634864490068B0FB20
:10212000F1F04000801C00E0401E00900028FBD130
:1021300020688168C1F3007141B9E16D41F010017F
:10214000E165216E41F001012166012502F0FCFBF1
:10215000E16DC90600D430B1E06D40F01000E065DB
:1021600001252846F8BDE06D20F4807040F00200A3
:10217000E0652068806810F0010F11D14FF0A04099
:1021800080684B4900F00100896801F001010843B3
:1021900006D148486168826822F47C120A43826052
:1021A000E168E06B627F0843A16841EA423108437D
:1021B00094F8241040EA0140012904D1218D3E4ABF
:1021C00002EB41410843E16A29B101F47871226BC5
:1021D000014342EA01002268D168384B19400143AB
:1021E000D16020680169626B21F040611143016197
:1021F000206802F0A1FB70BB207F94F838108003A8
:1022000040EA41022168C86844F20203984310433F
:10221000C86020690028206801690AD041F4803133
:102220000161206850F8C01F22696FF30D0111434E
:1022300007E021F480310161206850F8C01F6FF37E
:102240000D01016094F8400001280CD0206801695C
:1022500021F001010161606901282068016B21F012
:102260000F0111D013E0D4E911010843D4E913128E
:102270001143084321680A6940F2FC739A431043F2
:1022800040F001000861E6E7226A521E1143016333
:10229000E06D20F0020040F00100E06561E7000021
:1022A000C0FFFF5FC0FFFF7F30000020400D030034
:1022B00000010050000300500000FEFF0740F0FF47
:1022C0002DE9F04397B00646142111A8FDF7EAFF67
:1022D00044216846FDF7E6FF4FF4004231680025CF
:1022E0009003394F394C4FF003084FF09049B1F14A
:1022F000A04F10D0364B99424AD100920F906846B9
:1023000000F0FCFC08B1FEF77CFC3868401C38602B
:10231000012840D047E000920F90684600F0EEFCA4
:1023200008B1FEF76EFC3868401C3860012807D100
:10233000E06C40F40050E064E06C00F40050169053
:10234000E06C40F00100E064E06C139500F00100E7
:1023500016900E20CDE9110811A9484600F086FA22
:102360001D4C1C4820600520C4E901058020C4E9FB
:102370000350400060618000A0612020C4E907058F
:10238000204600F021F908B1FEF73BFC7465A66217
:1023900017B0BDE8F083E06C40F40050E064E06CFE
:1023A00000F400501690E06C40F00100E064E06C36
:1023B000139500F0010016901020CDE9110811A925
:1023C000484600F053FAE3E7000000200010024006
:1023D0000001005008000240280100202DE9F041D2
:1023E00004463848806800F01F05206802F0ACFA07
:1023F00018B102210846BDE8F08194F85800012880
:102400000CD0012084F858002046FEF731FB010073
:102410004FF0000304D084F85830EBE70220EAE7DD
:10242000E06D40F60162904340F48070E065264A1A
:1024300020684FF0A046904201D1374600E00746A1
:10244000874200D01DB9E76D27F48017E765E76D77
:10245000FF0404D5276E27F00607276600E02366F1
:102460001C27076084F858302068904201D1334619
:1024700000E00346834215D0A5B1052D12D0092DE9
:1024800010D0E36D43F48013E365904200D13046F1
:10249000C0688001AED5E06D20F4005040F480505B
:1024A000E065A7E7C268920105D5E26D22F400520B
:1024B00042F48052E2658268044B1A40121D826029
:1024C00098E700000003005000010050C0FFFF7FAC
:1024D00010B5044690F85800012808D0012084F86F
:1024E000580003212046FEF719FA10B10BE0022034
:1024F00010BD2046FEF784FA28B9E16D21F4885119
:1025000041F00101E165002184F8581010BDF0B4DC
:10251000016C0C6801680D6890F8442002F01F06F9
:10252000042202FA06F3234211D06B070FD50B6881
:102530009B0603D40B6823F004030B6090F844104F
:1025400001F01F018A40016C4A60016B1DE002230B
:1025500003FA06F727424FF0000C4FF0010218D0A3
:10256000AF0716D50C68A40605D40C6824F00A043D
:102570000C6080F8252090F8441001F01F018B407A
:10258000016C4B6080F824C0C16A00291AD0F0BCED
:1025900008470823B340234214D02B0712D50B68F9
:1025A00023F00E030B6090F84410036C01F01F0140
:1025B00002FA01F15960C26380F8252080F824C036
:1025C000416BE2E7F0BC704770B504000CD02C4AB8
:1025D00021681420914209D22A4A0A44B2FBF0F041
:1025E0008000606428480AE0012070BD244A5242FD
:1025F0000A44B2FBF0F0800060642148083820648F
:10260000022084F825000A6847F6F0708243D4E976
:1026100002031843D4E904352B431843A369184334
:10262000E3691843236A1843104308602046FEF705
:10263000AFFAA0680025B0F5804F00D16560207921
:10264000A16C00F07F000860D4E91301416060686C
:10265000401E032808D82046FEF7BEFA606D0560CC
:10266000D4E91601416002E06565A565E565E563AD
:10267000012084F8250084F82450002070BD00005B
:1026800008040240F8FFFDBF0000024070B5044698
:1026900000F014FA0546601C02D004484068044467
:1026A00000F00CFA401BA042FAD370BD04000020D9
:1026B0002DE9F05F054631488946017801290CD0A3
:1026C0000126804606704FF47A7B5846FEF710FBD1
:1026D00007004FF0000A03D04BE00220BDE8F09F56
:1026E00051464046C8F804A0254C226892050AD5F8
:1026F0002168490505D5216821F480612160032105
:1027000009E0067708E02268520504D5216821F423
:1027100080612160022101772868012805D04FF0EF
:10272000FF31C9F80010AE681CE06868FEF79AFA3D
:102730005846FEF7DDFA0746606920F00400606144
:1027400015E030466968FEF79BFA5846FEF7D0FA66
:102750000700606920F4FD70606102D0C9F8006074
:1027600005E0761CD5E902010844B042E9D8FEF73D
:102770004BFA88F800A03846B0E7000010000020AF
:1027800000200240054901204A6942F000424A61A6
:102790004969002900DA002070470000002002404B
:1027A0002DE9FF5F254C0646904620789A46012881
:1027B0000BD0012020704FF47A7B5846FEF798FA30
:1027C00007004FF0000904D02AE0022004B0BDE861
:1027D000F09F4846C4F80490194D2968490504D56E
:1027E000286820F4806028600220207726B1012E1E
:1027F00009D0022E07D00CE0424653460198FEF75E
:1028000053FA012612E041460198FEF75BFA022EC8
:102810000AD05846FEF76CFA4FEA0007FEF7F4F9C3
:1028200084F800903846D1E74FF480265846FEF7EA
:102830005FFA07466869B0436861EFE7100000205F
:1028400000200240064900204A69002A07DA054AAA
:102850008A60054A8A604969002900DA01207047C8
:102860000020024023016745AB89EFCD2DE9F04FF1
:10287000DFF80C92002301260325A9F1040B85B093
:102880000F2709F1040AABF1040EF1E006FA03FC8C
:1028900012EA0C027ED00C7904F00304012C01D062
:1028A000022C20D1846800945C0005FA04F804949A
:1028B000009C24EA08040094D1F80C80049C08FAD7
:1028C00004F8009C48EA0408C0F80880446824EA38
:1028D0000C0491F804C0CCF3001C0CFA03FC4CEA85
:1028E000040CC0F804C00C79E443A40702D18C683E
:1028F000012C0ED0C4684FEA430805FA08FC24EA0C
:102900000C04D1F808C00CFA08FC4CEA040CC0F81E
:102910000CC00C7904F00304022C16D1DC0800EB87
:10292000840CCDF808C0DCF820C05C074FEAD468FE
:1029300007FA08F42CEA040C0C6904FA08F444EAD7
:102940000C04DDF808C0CCF8204004684FEA4308C6
:1029500005FA08FC24EA0C0491F804C00CF0030CFE
:102960000CFA08FC4CEA040CC0F800C04C6814F4E3
:10297000403F7CD0434CD4F860C04CF0010CC4F80C
:1029800060C0246E23F0030C04F0010400943E4C5C
:10299000644400E06BE00294A4684FEA837C4FEA51
:1029A0001C7807FA08FC24EA0C04B0F1904F06D01A
:1029B000DFF8D8C0604505D14FF0010C20E04FF0A2
:1029C000000C1DE0DFF8C8C0604502D14FF0020CDA
:1029D00016E0DFF8C0C0604502D14FF0030C0FE0F5
:1029E000DFF8B4C0604502D14FF0040C08E0DFF816
:1029F000ACC0604502D14FF0050C01E04FF0060C71
:102A00000CFA08FC4CEA040C029CC4F808C0D9F883
:102A10000040CC46D1F8048094435FEAC82800D532
:102A20001443CCF80040DAF80040D446D1F80480D2
:102A300094435FEA882800D51443CCF80040DBF8C3
:102A40000040DC46D1F8048094435FEA883800D522
:102A50001443CCF80040DEF80040F446D1F804807E
:102A600094435FEAC83800D51443CCF800405B1C9F
:102A70000C682246DC407FF409AF05B0BDE8F08F5A
:102A8000080401400010024000000140000400481A
:102A900000080048000C00480010004800140048DE
:102AA000426921EA02030A4043EA02418161704718
:102AB0000AB18161704781627047000001488068F7
:102AC00070470000040000200248816842681144F9
:102AD000816070470400002010B50024032000F03E
:102AE00095F80F2000F008F808B1012401E000F08B
:102AF00047F8204610BD000030B505461C4887B099
:102B0000816D41F001018165806D06A900F0010031
:102B1000009001A800F01AFB00F038FB15494FF0B7
:102B20008042B0FBF1F11448491E0260416040F25E
:102B3000E7320021C0E90321816001F0DEF90400E1
:102B400012D10D4801F056FA04000DD11C2000F0FE
:102B50002FF8102D07D2002229461C2000F036F84D
:102B60000648056000E0012407B0204630BD0000A3
:102B70000010024040420F004404002004000020E6
:102B80000A4882B0016E41F001010166016E01F058
:102B900001010091816D41F080518165806D00F0EF
:102BA0008050009002B000F0A1B800000010024078
:102BB000002809DB00F01F0201219140400980003C
:102BC00000F1E020C0F8001170470000F0B40E4B97
:102BD0001B680C46C3F30223C3F10705042D00D97B
:102BE0000425191D072901D2002300E0DB1E012660
:102BF00006FA05F1491E214099409E40761E164076
:102C00003143F0BC03F0DABB0CED00E0064900F004
:102C1000070208684FF6FF03184040EA0220034A03
:102C200010430860704700000CED00E00000FA055A
:102C30002B492C4B0A6832214A432B4940B1B0F54D
:102C4000007F086829D020F4C06040F480602CE048
:102C50000868C0F34120022804D051F8800F20F406
:102C6000807022E0D1F8800020F48070C1F88000EC
:102C7000086820F4C06040F400700860B2FBF3F014
:102C8000401C00E0401E4A69520501D50028F9D1D8
:102C9000486940050AD503207047C0F34120022847
:102CA00006D051F8800F40F4807008600020704713
:102CB000D1F8800040F48070C1F88000086820F4EA
:102CC000C06040F400700860B2FBF3F0401C00E00C
:102CD000401E4A695205DBD50028F9D1D8E700002B
:102CE0003000002040420F00007000400248816820
:102CF00041F4804181607047007000402DE9F84345
:102D00000446006800269D4D00035ED5A86D00278F
:102D1000C00008D4A86D40F08050A865A86D0127B8
:102D200000F080500090DFF85892D9F8001041F47C
:102D30008071C9F80010FFF7C1FE804606E000BFB1
:102D4000FFF7BCFEA0EB080002282BD8D9F8000042
:102D5000C005F5D5D5F8900010F4407014D0216C62
:102D6000814211D0D5F89000D5F8901020F4407031
:102D700041F48031C5F89010D5F8901021F48031DD
:102D8000C5F89010C5F89000C00711D0FFF796FE67
:102D9000804641F2883907E0FFF790FEA0EB08017A
:102DA000494501D903260BE0D5F890008007F3D5FB
:102DB000D5F89000216C20F440700843C5F89000CD
:102DC0001FB1A86D20F08050A8652078C00707D0FB
:102DD000D5F88800616820F003000843C5F8880032
:102DE0002078800707D5D5F88800A16820F00C006E
:102DF0000843C5F888002078400707D5D5F8880033
:102E0000E16820F030000843C5F88800207800070A
:102E100007D5D5F88800216920F0C0000843C5F81F
:102E200088002078800607D5D5F88800616920F4ED
:102E300040600843C5F888002078400607D5D5F8DB
:102E40008800A16920F440500843C5F88800207824
:102E5000000607D5D5F88800E16920F44040084312
:102E6000C5F888002088C00507D5D5F88800216AF4
:102E700020F440300843C5F888002088800507D535
:102E8000D5F88800616A20F440200843C5F888001E
:102E9000208840050FD5D5F88800A16A20F440109D
:102EA0000843C5F88800A06AB0F5801F03D1E86820
:102EB00040F48010E860208800050FD5D5F8880020
:102EC000E16A20F440000843C5F88800E06AB0F5E4
:102ED000800F03D1E86840F48010E8602088C004C7
:102EE0000FD5D5F88800216B20F040700843C5F855
:102EF0008800206BB0F1807F03D1E86840F4801037
:102F0000E86020884FF0006180040ED5D5F8880075
:102F1000626B20F040601043C5F88800606B884207
:102F200003D1E86840F48010E860208840040ED5A2
:102F3000D5F88800A26B20F040601043C5F88800E7
:102F4000A06B884203D1E86840F48010E8602088D4
:102F500000040FD5D5F88800E16B20F040500843FD
:102F6000C5F88800E06BB0F1805F03D1E86840F4F9
:102F70008030E8603046BDE8F88300000010024071
:102F8000007000402DE9F0470E4605004FF00007A5
:102F900025D0DFF89C81D8F8000000F00F00B04287
:102FA0000CD2D8F8001021F00F013143C8F80010FE
:102FB000D8F8000000F00F00B04210D129685D4C35
:102FC000C80741F2883A52D06868DFF86C9103284C
:102FD00008D00228206826D04005002825DB0120E3
:102FE000BDE8F08720688001F9D5E068E068534BC0
:102FF000C0F30310401CB3FBF0F0E268C2F30622FA
:103000005043E268C2F34162521C5200B0FBF2F03E
:10301000484515D9A06810F0F00F0AD088070FD5E1
:10302000A86830B10CE08003D7E700F0D3F848453A
:1030300006D9A06820F0F00040F08000A060802752
:10304000A068696820F003000843A060FFF736FD20
:10305000814605E0FFF732FDA0EB090151453AD862
:10306000A068696800F00C00B0EB810FF2D128680D
:10307000810714D5400703D5A06840F4E060A06044
:103080002878000705D5A06820F4605040F4E0607F
:10309000A060A068A96820F0F000084304E0802F39
:1030A00003D1A06820F0F000A060D8F800104046DE
:1030B00001F00F01B14216D9016821F00F0131432F
:1030C0000160FFF7FBFC074607E000BFFFF7F6FCD7
:1030D000C11B514501D9032082E7D8F8000000F058
:1030E0000F00B042F2D12878400705D5A068E96802
:1030F00020F4E0600843A0602878000706D5A068A7
:10310000296920F4605040EAC100A06000F062F834
:10311000A1680B4AC1F30311515C01F01F01C840C3
:103120000849086008480068BDE8F047FFF7E4BCBC
:10313000002002400010024000B4C4040024F40047
:10314000C083000830000020040000200F2202602D
:103150000C4A936803F003034360936803F0F003A1
:103160008360936803F4E063C36092684FF4E063A4
:1031700003EAD20202610448006800F00F00086010
:103180007047000000100240002002400548064938
:1031900000688968054AC1F30221515C01F01F01F2
:1031A000C84070473000002000100240D083000863
:1031B0000548064900688968054AC1F3C221515C87
:1031C00001F01F01C840704730000020001002408D
:1031D000D083000813498868C0F381021248012A8D
:1031E0000AD08A68C2F38102022A05D08A68C2F333
:1031F0008102032A01D000207047CA6802F003034D
:10320000CA68C2F30312521CB0FBF2F0CA68C96864
:10321000C2F306225043C1F34161491C4900B0FB8F
:10322000F1F07047001002400024F4002DE9F8434B
:1032300004007AD02078F84DC00747D0A868E96824
:1032400000F00C0001F003010C2802D0082817D070
:1032500001E0032914D06068B0F5803F17D0B0F5C5
:10326000A02F286817D020F480302860286820F428
:10327000802028606068E0B1FFF720FC064614E07B
:103280002868800322D560680028D2D01EE0286814
:1032900040F48030EDE740F480202860F7E700BF7D
:1032A000FFF70CFC801B642870D828688003F7D5D2
:1032B0000CE0FFF703FC064605E000BFFFF7FEFB4E
:1032C000801B6428F0D828688003F7D42078800712
:1032D0004CD5A868E96800F00C0001F003010C2847
:1032E00002D004280DD001E002290AD0E0680028AD
:1032F00028682BD040F480702860FFF7DFFB06467B
:1033000019E02868400502D5E068002891D0686877
:10331000217C20F0FE4040EA01606860BF48006800
:10332000FFF7EAFB002800D120E072E1FFF7C6FBBF
:10333000801B0228B8D828684005F7D56868217C2A
:1033400020F0FE4040EA016068600FE020F48070E9
:103350002860FFF7B3FB064605E000BFFFF7AEFBB2
:10336000801B0228A0D828684005F7D420780007E1
:1033700029D560690028D5F8940013D040F00100E9
:10338000C5F89400FFF79AFB064606E090E000BF00
:10339000FFF794FB801B022886D8D5F8940080079D
:1033A000F6D510E020F00100C5F89400FFF786FB89
:1033B000064604E0FFF782FB801B022878D8D5F888
:1033C00094008007F6D42078400761D5A86D0026C8
:1033D000C00008D4A86D40F08050A865A86D0126F3
:1033E00000F0805000908E480168C90511D4016832
:1033F000804641F480710160FFF760FB074604E0FE
:10340000FFF75CFBC01B022852D8D8F80000C005AB
:10341000F6D5A068012815D00528D5F8900016D05B
:1034200020F00100C5F89000D5F8900020F00400CD
:10343000C5F89000A06841F28838B8B1FFF73EFBAC
:1034400007460EE0D5F8900040F00100F0E740F0AC
:103450000400C5F89000F5E7FFF730FBC11B4145BC
:1034600026D8D5F890008007F6D50CE0FFF726FBAC
:10347000074604E0FFF722FBC11B414518D8D5F8E9
:1034800090008007F6D41EB1A86D20F08050A8658A
:103490002078800629D5A0690028D5F8980013D097
:1034A00040F00100C5F89800FFF708FB064606E06B
:1034B00075E000BFFFF702FB801B02286FD8D5F82C
:1034C00098008007F6D510E020F00100C5F89800BC
:1034D000FFF7F4FA064604E0FFF7F0FA801B022833
:1034E0005DD8D5F898008007F6D4E069F0B3A968F4
:1034F000C1F3810103295DD00228286820F0807083
:10350000286003D0FFF7DAFA04464BE0FFF7D6FA5B
:10351000064604E0FFF7D2FA801B02283FD828684D
:103520008001F7D4F4E908016FF00F0202EB0111FA
:103530000843218A5204490802EB4151A26841EA3A
:1035400002210843217D4FF07E42490802EB416190
:103550000843217B40EAC160E968324A11400843D0
:10356000E860286840F08070286000E05EE0E8686D
:1035700040F08070E860FFF7A1FA044605E000BF64
:10358000FFF79CFA001B022809D828688001F7D5AC
:103590004CE000BFFFF792FA001B022802D903207B
:1035A000BDE8F88328688001F4D4E8681E49084023
:1035B000E8603BE00128F3D0E868226A00F00301EC
:1035C000914226D1616A00F0F0020901103991425E
:1035D0001FD1A26A00F4FE41B1EB022F19D194F879
:1035E0002C2000F07841B1EBC26F12D1218E00F493
:1035F000C00249084905A1F50011914209D194F88A
:10360000341000F0C06049084906A1F10071814200
:103610000CD00120C4E7000000100240040000208C
:10362000007000400C809F01FCFFEEFE0020B7E719
:1036300070B5040009D0606A002540B1256165615C
:10364000A56294F85D0040B10CE0012070BD606897
:10365000B0F5827FF4D0E561F2E784F85C50204653
:1036600000F05CF8022084F85D002068016821F019
:1036700040010160E1684FF4E062914201D900200D
:1036800001E04FF48050B1F5706F02D0914200D04C
:10369000A562A188228901F4827102F404421143D7
:1036A000227C02F002021143227D02F0010211434A
:1036B000228B02F400721143227F02F03802114380
:1036C00094F8202002F080021143228D02F400526F
:1036D000114322681160A169042202EA114194F8A1
:1036E000242000F4805002F01002114394F834209A
:1036F00002F008021143A28902F4706211430143EF
:10370000206841602068C16921F40061C1612566BB
:10371000012084F85D00002070BD000010B586B067
:10372000044614216846FCF7BDFD12492068884212
:103730001ED11148016E41F480510166016E01F401
:1037400080510591C16C41F00101C164C06C002140
:1037500000F001000590E02000900220CDE9010179
:1037600003900520049069464FF09040FFF77EF8E3
:1037700006B010BD00300140001002402DE9F84FA6
:10378000044690F85D001D4616460F4601283FD1BD
:10379000002F75D0002E73D060684FF00408B0F58C
:1037A000827F01D1A06848B3FFF788F9824694F878
:1037B0005C0001282CD04FF0010984F85C9084F85B
:1037C0005D804FF00008C4F860802764A4F844606E
:1037D000A4F84660C4F83880A4F83C80A4F83E8081
:1037E000C4F84C80C4F85080E0684FF4E06188422F
:1037F000206842680ED922F480520DE084F85D8082
:10380000009313460A46204600F03EF9BDE8F88FC3
:103810000220FBE742F480524260A068B0F5004FFE
:1038200009D12068026822F0400202602068026824
:1038300022F48042026020680268520603D40268C3
:1038400042F040020260E06888421BD939E02068FB
:103850008168C9070BD0017B206C0170206C401C73
:103860002064B4F84600401EA4F846000AE0FFF7C2
:1038700025F9A0EB0A00A84203D3681C02D036E069
:1038800032E09DB3B4F846000028E0D11DE0206886
:103890008168C9070BD0C068216C0880206C801C2F
:1038A0002064B4F84600401EA4F8460009E0FFF783
:1038B00005F9A0EB0A00A84202D3681C01D016E06B
:1038C000A5B1B4F846000028E1D152462946204669
:1038D00001F054FE08B12020206684F85D9084F841
:1038E0005C80206E002891D001208FE7FFE784F8EC
:1038F0005D9084F85C80032088E72DE9F84F9846B6
:1039000016468A460446FFF7D9F8814694F85D00CA
:10391000012820D1BAF1000F6FD0002E6DD094F89D
:103920005C00012817D0012784F85C70032084F81C
:103930005D0000252566C4F838A0A687E6872564C3
:10394000A4F84450A4F846502565E564A068B0F595
:10395000004F03D00CE00220BDE8F88F206801681A
:1039600021F0400101602068016841F4804101605C
:1039700020680168490603D4016841F040010160F4
:10398000E068B0F5E06F606826D908B1012E1FD15C
:10399000A06B21680088C86006E0206881688907FC
:1039A00009D5A16B0988C160A06B801CA063E08F62
:1039B000401EE0870CE0FFF781F8A0EB09014145CC
:1039C00003D3B8F1FF3F03D04BE0B8F1000F48D06C
:1039D000E08F0028E1D139E008B1012E33D1E08F2A
:1039E0000128A06B03D921680088C86010E0216815
:1039F0000078087314E0E08725E043E020688168E0
:103A0000890713D5E18F0129A16B07D90988C16006
:103A1000A06B801CA063E08F801EECE70978017327
:103A2000A06B401CA063E08F401EE4E7FFF746F860
:103A3000A0EB0901414503D3B8F1FF3F03D010E0EB
:103A4000B8F1000F0DD0E08F0028D7D14A4641468B
:103A5000204601F0CDFD08B120202066A06830B1DD
:103A600009E084F85D7084F85C50032074E72068F6
:103A7000C1688068009084F85D7004F85C5F6068DD
:103A80000028F3D0012067E72DE9FF5F1D4693462C
:103A900004464FF001090E9EFFF710F8074694F810
:103AA0005D006168012806D0B1F5827F39D1A16837
:103AB000B1BB042835D1019800287CD0BBF1000FA0
:103AC000FBD0002DF9D094F85C00012829D04FF0EC
:103AD000010A84F85CA094F85D00042802D0052057
:103AE00084F85D004FF00008C4F86080C4F840B06E
:103AF000A4F84650A4F844500199A163E587A5872E
:103B0000C4F84C80C4F85080E0684FF4E06188420B
:103B100001D8012D09D92068426822F4805208E0BA
:103B2000FFE7022004B0BDE8F09F2068426842F43D
:103B30008052426020680268520603D4026842F054
:103B400040020260E0688842606846D908B1012DF1
:103B50003BD1A06B01882068C160A06B801CA06372
:103B6000E08F401EE08730E02068816889070FD52C
:103B7000E18F69B1B9F1010F0AD1A16B0988C16068
:103B8000A06B801CA063E08F401EE0874FF000090F
:103B900020688168C90711D0B4F8461071B1C068B7
:103BA000216C0880206C801C2064B4F84600401E04
:103BB000A4F8460000E09EE04FF00109FEF77EFF0A
:103BC000C01BB04201D3701C74D1E08F0028CBD150
:103BD000B4F846000028C7D175E008B1012D6BD1BB
:103BE000E08F0128A06B08D921680088C860A06B0D
:103BF000801CA063E08F801E07E0216800780873B6
:103C0000A06B401CA063E08F401EE08754E020685A
:103C1000816889071AD5E18FC1B1B9F1010F15D1BA
:103C2000E18F0129A16B07D90988C160A06B801CB5
:103C3000A063E08F801E06E009780173A06B401C32
:103C4000A063E08F401EE0874FF000092068816884
:103C5000C90728D0B4F8461029B3B4F84610012992
:103C600014D9C068216C0880206C801C2064B4F8D2
:103C70004600801EA4F84600B4F84600012810D87B
:103C80002068416841F4805141600AE0007B216C6A
:103C90000870206C401C2064B4F84600401EA4F854
:103CA00046004FF00109FEF709FFC01BB04202D3E6
:103CB000701C01D012E08EB1E08F0028A7D1B4F8BB
:103CC00046000028A3D13A463146204601F090FC38
:103CD00050B12020206684F85C800CE084F85DA060
:103CE00084F85C8003201DE784F85DA084F85C8084
:103CF000206E0028F7D0012014E770477047704706
:103D000030B590F83C20012A42D0012280F83C20B6
:103D1000CA688B6822F440721A434B6822F48062AE
:103D20001A430B6822F400621A430B6922F4805292
:103D30001A434B6922F400521A430B6B22F480425F
:103D40001A430B8B22F4702242EA0342CB6922F021
:103D500080521A430F4D03680024AB4202D00E4D2F
:103D6000AB4210D10D8D22F4700242EA05520D6A69
:103D700022F080722A434D6A22F000722A43C96AF7
:103D800022F000520A435A6480F83C40002030BDC3
:103D9000022030BD002C01400034014070477047C4
:103DA00070470000F0B590F83C20012A3AD0012578
:103DB00080F83C50022280F83D2003685A689C68D5
:103DC000194E1A4FB34201D0BB4204D122F4700CF9
:103DD0004A6842EA0C02DFF858C002EA0C02D1F845
:103DE00000C04CEA020CC3F804C00268B2420DD015
:103DF000B2F1804F0AD00F4B9A4207D00E4B9A4235
:103E000004D0BA4202D00D4B9A4204D1896824F002
:103E100080031943916080F83D50002180F83C10E8
:103E20000846F0BD0220F0BD002C014000340140E6
:103E30008FFFFFFD000400400008004000400140EB
:103E400010B50446022249B104290ED0082913D026
:103E500094F84700012816D0012010BD94F84400C2
:103E60000128F9D184F844200FE094F84500012896
:103E7000F2D184F8452008E094F846000128EBD1FF
:103E800084F8462001E084F847200422206801F0ED
:103E90008AFD2068416C41F400414164104920686A
:103EA00088420ED0B0F1804F0BD00E49884208D026
:103EB0000D49884205D00D49884202D00C498842FC
:103EC00007D181680B4A1140062906D0B1F5803F21
:103ED00003D0016841F001010160002010BD000025
:103EE000002C014000040040000800400034014064
:103EF0000040014007000100704710B5040003D0E6
:103F000094F83D0010B107E0012010BD002084F8B6
:103F10003C00204600F022F8022084F83D00211DDC
:103F2000206801F0D7FC012084F8480084F83E00A6
:103F300084F83F0084F8400084F8410084F842008F
:103F400084F8430084F8440084F8450084F846006F
:103F500084F8470084F83D00002010BD08B5204AD1
:103F600001682048914207D1016E41F40061016669
:103F7000006E00F4006009E01B4A914208D1816D97
:103F800041F002018165806D00F00200009008BDE3
:103F9000164A91420ED1816D41F010018165806D0C
:103FA000002200F01000009011463620FEF70EFEB1
:103FB000362010E00E4A9142E9D1816D41F0200196
:103FC0008165806D002200F02000009011463720AE
:103FD000FEF7FCFD3720BDE80840FEF7E9BD000014
:103FE000002C01400010024000040040001000407E
:103FF0000014004090F83D10012901D001207047C5
:10400000022180F83D100168CA6842F00102CA60CE
:104010000068104988420ED0B0F1804F0BD00E4995
:10402000884208D00D49884205D00D49884202D007
:104030000C49884207D181680B4A1140062906D0F5
:10404000B1F5803F03D0016841F00101016000201B
:1040500070470000002C01400004004000080040B0
:1040600000340140004001400700010070B50446E3
:1040700090F83C000025012814D0012684F83C600B
:10408000022084F83D0022689068364B184020F4E6
:104090007F409060086870282ED010DC10F00F0F61
:1040A00003D021E04FF0020070BD4FEA2012072A32
:1040B0001AD2DFE802F0525252524A3840002A4BDC
:1040C000C21A984249D009DCB0F5805F0DD0B0F536
:1040D000005F1CD0B0F1101F06D13EE0102A3CD08A
:1040E000202A3AD0502A38D0012584F83D6000209B
:1040F00084F83C00284670BDCB68D1E901212068D6
:1041000001F05EFC2068816841F0770109E0CB682E
:10411000D1E90121206801F053FC2068816841F455
:1041200080418160E1E7CA684968206801F0FCFDD0
:104130005021206806E0CA684968206801F022FE24
:104140006021206801F046FCCFE7CA684968206812
:1041500001F0EAFD40212068F4E72268014610469C
:10416000F0E7000088FFCEFF2000100070472DE927
:10417000F04104460068C66805694FF00007A907CA
:1041800013D5B10711D5F91E0161012020772068F0
:1041900080698007204602D0FFF7E8FF04E000F0C6
:1041A00001F9204600F0C3F92777680716D5700794
:1041B00014D521686FF00400086102202077206880
:1041C000806910F4407F204602D0FFF7CFFF04E063
:1041D00000F0E8F8204600F0AAF92777280715D55F
:1041E000300713D521686FF008000861042020779C
:1041F0002068C0698007204602D0FFF7B7FF04E0BF
:1042000000F0D0F8204600F092F92777E80616D59E
:10421000F00614D521686FF010000861082020779F
:104220002068C06910F4407F204602D0FFF79EFF4F
:1042300004E000F0B7F8204600F079F92777E807A6
:1042400008D0F00706D021686FF001000861204611
:1042500000F0ECF9280601D4A80408D5300606D5EC
:1042600021686FF4025008612046FFF747FDE8051A
:1042700008D5300606D521686FF4807008612046A5
:10428000FFF73BFD680608D5700606D521686FF07C
:1042900040000861204600F0DFF9A80608D5B00606
:1042A00006D521686FF0200008612046FFF727FD42
:1042B000E80208D5F00206D521686FF48010086185
:1042C0002046FFF76CFDA80208D5B00206D521688C
:1042D0006FF4001008612046FFF760FD680208D502
:1042E000700206D521686FF4800008612046FFF750
:1042F00057FD28020AD5300208D521686FF4000066
:1043000008612046BDE8F041FFF7F6BDBDE8F08149
:10431000F0B587B0044614216846FBF7C3FF1E4979
:104320002068884236D11D48C16C41F00201C16449
:10433000C16C01F002010591C16C41F00101C16441
:10434000C06C022500F0010005904FF4C0400090C1
:104350000024CDE901540626114FCDE903466946F4
:104360003846FEF783FAA8030090CDE901540420F3
:10437000CDE9034069463846FEF778FA4FF4E0602D
:104380000090CDE90154CDE9034669464FF09040D5
:10439000FEF76CFA07B0F0BD002C0140001002409F
:1043A00000040048704770B5044690F83C000026B1
:1043B0000D4601280BD0012084F83C000C2A4AD07D
:1043C00007DC82B1042A20D0082A06D131E002207D
:1043D00070BD102A53D0142A63D00126002084F81F
:1043E0003C00304670BD206801F0FEFA206881690B
:1043F00041F0080181612068816921F00401816137
:10440000206881692A69114311E0206801F03EFBB0
:104410002068816941F4006181612068816921F42B
:1044200080618161206881692A6941EA0221816194
:10443000D4E7206801F074FB2068C16941F00801ED
:10444000C1612068C16921F00401C1612068C169AE
:104450002A69114311E0206801F0ACFB2068C169B2
:1044600041F40061C1612068C16921F48061C161CA
:104470002068C1692A6941EA0221C161AEE720686A
:1044800001F0E2FB2068016D41F008010165206840
:10449000016D21F0040101652068016D2A69114355
:1044A00011E0206801F008FC2068016D41F4006112
:1044B00001652068016D21F4806101652068016D4E
:1044C0002A6941EA0221016588E710B5040003D09A
:1044D00094F83D0010B107E0012010BD002084F8E1
:1044E0003C00204600F022F8022084F83D00211D07
:1044F000206801F0EFF9012084F8480084F83E00BC
:1045000084F83F0084F8400084F8410084F84200B9
:1045100084F8430084F8440084F8450084F8460099
:1045200084F8470084F83D00002010BD70477047B4
:1045300030B50446022269B1042912D0082917D0E7
:104540000C291CD0102921D094F84300012824D034
:10455000012030BD94F83E000128F9D184F83E20B6
:104560001DE094F83F000128F2D184F83F2016E0C6
:1045700094F840000128EBD184F840200FE094F833
:1045800041000128E4D184F8412008E094F8420079
:104590000128DDD184F8422001E084F84320012283
:1045A000206801F0F3F9194B20681949194A98421B
:1045B00009D0884207D0904205D0174DA84202D0BA
:1045C000164DA84203D1456C45F40045456420686A
:1045D00098420CD0B0F1804F09D0114B984206D0D0
:1045E000104B984203D0884201D0904207D1816895
:1045F0000D4A1140062906D0B1F5803F03D001686D
:1046000041F001010160002030BD0000002C01409C
:104610000034014000400140004401400048014096
:104620000004004000080040070001000068B0F1ED
:10463000804F04D00649884203D1FDF73BB8FEF70E
:1046400043BA0449884201D1FCF76ABA70470000B6
:104650000010004000140040704790F884100129B9
:1046600018D0012180F884102421C0F88810016836
:104670000A680B6823F001030B6022F0005100224E
:104680004266036819602021C0F8881080F88420F1
:10469000104670470220704770B5044690F88400B9
:1046A00001281DD0012084F884002420C4F888004B
:1046B00020680568026822F00102026020688268B2
:1046C00022F060620A438260204601F07BFB206892
:1046D00005602020C4F88800002084F8840070BDA4
:1046E000022070BD70B5044690F8840001281DD0EA
:1046F000012084F884002420C4F88800206805681C
:10470000026822F0010202602068826822F06042A2
:104710000A438260204601F055FB20680560202096
:10472000C4F88800002084F8840070BD022070BDA9
:1047300010B5040003D0D4F8880010B107E00120C0
:1047400010BD002084F88400204600F027F82420C3
:10475000C4F888002068016821F001010160A06AA6
:1047600010B1204601F050FB204601F031FC012839
:10477000E6D02068416821F490414160206881685A
:1047800021F02A0181602068016841F00101016087
:104790002046BDE8104001F09BBB00002DE9F04130
:1047A00098B00446142111A8FBF77CFD442168460B
:1047B000FBF778FD26492068264C0727DFF898800C
:1047C00002260025884219D1684600960295FEF718
:1047D00095FA08B1FCF715FAA06D40F40030A06519
:1047E000A06D00F400301690E06C40F00200E06430
:1047F000E06C00F00200169018201DE01749884276
:1048000023D10420009003956846FEF777FA08B19B
:10481000FCF7F7F9A06D40F48020A065A06D00F4CE
:1048200080201690E06C40F00200E064E06C00F044
:10483000020016904FF44060CDE91265CDE914579F
:10484000119011A94046FEF711F818B0BDE8F081AB
:1048500000440040001002400004004800480040AE
:104860002DE9F84F0446D0F88800984615460E46C4
:10487000202802D00220BDE8F88F96B38DB3002027
:10488000C4F890004FF02109C4F888901834FEF75E
:1048900015F9A5878246E58754F8100C183CB0F549
:1048A000805F01D1206910B13546002600E0002567
:1048B0005FF02007B4F8560053464FF00002CDF8E1
:1048C0000080D8B18021204601F0BCFCD8B955B198
:1048D00015F8010B21688862D4F8881039EA0100C4
:1048E00006D00120C7E736F8020BC0F30800F1E755
:1048F000B4F85600401EA4F85600DBE740212046DD
:1049000001F0A0FC18B1C4F888700320B3E7C4F824
:1049100088700020AFE7FEE7034800785D2801D0EB
:10492000002070470120704700F8010800EB81006B
:10493000006E00F0F84070478068C0F3C000704718
:104940008068C0F3C00070478068C0F38000704783
:104950008068C0F380007047042303EAD15310B588
:1049600018444369C1F3045107248C40A3438A408F
:104970001343436110BD00EB8100016E21F0004143
:104980001143016670470000F8B5114C20780028EB
:104990001DD010A0104D006801220090114628463D
:1049A000FEF786F84FF0FF363346012269460B4882
:1049B000FEF7A3FF002201212846FEF779F83346CF
:1049C000022269460548FEF798FF01206070F8BD95
:1049D00034000020A00300000004004888010020EB
:1049E00008B50020009012484078F0B14FF0FF3336
:1049F000042269460F48FEF7C1FE9DF800009DF8AD
:104A00000110C00140EA510000EE100ADFED0A0A71
:104A1000B8EE400A20EE200AF0EE000A20EE200A4E
:104A2000DFED060A20EE200A08BD9FED050A08BD4D
:104A3000340000208801002000000038DB0F4940CE
:104A40000000000001490120087070473400002078
:104A500030B593B000240F9410943C216846119413
:104A6000FBF720FC2D484FF0A041042501604FF4D6
:104A70000021C0E9011485610121C460C0E904413D
:104A800004774477016280F8244080F838400903B5
:104A9000C16380F84040FDF719FB08B1FCF7B1F89D
:104AA0000FA91E480F94FDF7A5FA08B1FCF7A9F865
:104AB0001B4800900920CDE901047F200594CDE931
:104AC000030503200890A0200A908DF82440802040
:104AD0008DF825400B908DF826408DF830406946C2
:104AE0000E48FCF7CBFE08B1FCF78BF840F20F1034
:104AF000019069460948FCF7C1FE08B1FCF781F84E
:104B000040F21520019069460448FCF7B7FE0028E2
:104B100001D0FCF776F813B030BD00005000002043
:104B20000400600870B590B03C216846FBF7BAFB02
:104B30001D481C4900240160C902C0E90114C46079
:104B400004250461C0E9054504774477012606621F
:104B500080F8244080F83840C46380F84040FDF776
:104B6000B5FA08B1FCF74DF8104800900920CDE9DE
:104B700001047F2008960594CDE903058DF82440B3
:104B80008DF825408DF826400A940B948DF830401E
:104B900069460548FCF772FE002801D0FCF731F8A1
:104BA00010B070BD00010050BC0000200000524752
:104BB0000D4808B5816C41F004018164816C01F0FD
:104BC00004010091816C41F001018164806C00223C
:104BD00000F00100009011460B20FDF7F7FFBDE843
:104BE00008400B20FDF7E4BF0010024010B586B06E
:104BF00014216846FBF756FB1848C16C41F02001B0
:104C0000C164C16C01F020010591C16C41F001014A
:104C1000C164C16C01F001010591C16C41F0020158
:104C2000C164C06C0E4C00F002000590002201210E
:104C30002046FDF73DFF0122C0212046FDF738FF49
:104C4000C120009001200021CDE9010103916946B6
:104C50002046FDF70BFE06B010BD0000001002401C
:104C600000040048124810B5104901604FF48271E9
:104C7000416000214FF4E062C0E9021202220261A9
:104C800001224261520282611822C0E907210722F3
:104C90004162C0E90A1201634163FEF7C9FC0028C2
:104CA00003D0BDE81040FBF7ACBF10BD00300140A1
:104CB0008801002030B59BB0002419941A941794F1
:104CC0001894149415941C2168461694FBF7EAFA7C
:104CD000342107A8FBF7E6FA3A4839492025016054
:104CE0000121C0E9011540F64C01C0E903144461FB
:104CF0008461FFF702F908B1FBF783FF4FF480509E
:104D0000179017A92F48FFF7B1F908B1FBF779FF02
:104D10002C48FFF7DAFB08B1FBF773FF4FF4E00014
:104D20001495CDE9150414A92648FFF73BF808B1FE
:104D3000FBF767FF6020CDE900040294039404941C
:104D40000594002269461F480694FFF72CFB08B122
:104D5000FBF757FF042269461A48FFF724FB08B106
:104D6000FBF74FFF082269461648FFF71CFB08B106
:104D7000FBF747FF052001900C2269461148FFF719
:104D800012FB08B1FBF73DFF0794089409944FF418
:104D900000500A94CDE90B400D9400030E94CDE928
:104DA0000F401194129407A906481394FEF7A8FF28
:104DB00008B1FBF726FF0348FFF7AAFA1BB030BD86
:104DC000002C0140EC01002010B588B000241748E9
:104DD0000094019402940394049405941249069457
:104DE000C0E900144FF6FF71C0E90241046184611B
:104DF000FFF783F808B1FBF704FF4FF480500090F1
:104E000069460A48FFF732F908B1FBF7FAFE049445
:104E100004A906480694FEF7C5FF002801D0FBF759
:104E2000F0FE08B010BD0000000400403802002071
:104E30003EB500240E48009401940C490294016090
:104E4000A921C0E9011463218461C160FFF755F80D
:104E500008B1FBF7D6FE0094694605480294FEF7B8
:104E6000A1FF002801D0FBF7CCFE3EBD00100040A2
:104E7000840200203EB500240F48009401940D499F
:104E80000294016040F2A721C0E9011440F2E73129
:104E90008461C160FFF731F808B1FBF7B2FE0094FE
:104EA000694605480294FEF77DFF002801D0FBF714
:104EB000A8FE3EBD00140040D0020020184810B5E6
:104EC000164901604FF461214160002181600C228C
:104ED000C160C0E904128161C16101624162816205
:104EE000FFF726FC08B1FBF78CFE00210C48FFF70A
:104EF000F9FB08B1FBF785FE00210948FFF7CCFB61
:104F000008B1FBF77EFE0648FFF7A7FB002803D099
:104F1000BDE81040FBF775BE10BD00000044004026
:104F20001C030020184810B5164901604FF4612198
:104F30004160002181600C22C160C0E904128161DE
:104F4000C161016241628162FFF7F2FB08B1FBF7C8
:104F500058FE00210C48FFF7C5FB08B1FBF751FED6
:104F600000210948FFF798FB08B1FBF74AFE064805
:104F7000FFF773FB002803D0BDE81040FBF741BEEC
:104F800010BD000000480040B0030020FEE7FEE72F
:104F9000A0B1D0ED101AC0ED111A90ED0F1A80EDEE
:104FA000101AC0ED060A80ED070A30EEC00A80ED47
:104FB0000F0A017829B101293BD078E09FED3D0A25
:104FC0007047D0ED010A60EE801AC0ED091AD0EDED
:104FD0000A0A90ED022A42EE000A30EE410AC0EDC4
:104FE0000A0A90ED0D2A80ED0E2A90ED0C2A80ED34
:104FF0000D2A80ED0C0A90ED031A21EE001A80EDC7
:105000000B1A90ED050AF4EEC00AF1EE10FA09DC75
:10501000B1EE400AF4EEC00AF1EE10FA02D390EDC0
:105020000A0A01E080ED0A0A31EE800A30EE010A38
:105030002BE070EE410A90ED012A20EE822A80EDED
:10504000092AD0ED020A60EE800AC0ED0A0AD0ED0E
:105050000D2A72EE200AC0ED0E2AD0ED0C2AC0ED0A
:105060000D2AF0EE002A01EE620A30EE210A80EDF0
:105070000C0A90ED031A21EE000A80ED0B0A30EEC7
:10508000800AD0ED080A30EE200A80ED080AD0ED43
:10509000040AB4EEE00AF1EE10FA06DCF1EE600A62
:1050A000B4EEE00AF1EE10FA01D2C0ED080A90ED7C
:1050B000080A704700000000002828D0002A26D0E7
:1050C000017092ED001A80ED011A92ED011A80ED47
:1050D000021A92ED021A80ED031A80ED040A9FED88
:1050E0000C0AC0ED050A80ED0E0A80ED0D0A80ED78
:1050F0000C0A80ED080A80ED0B0A80ED0A0A80EDAB
:10510000090A80ED110A80ED100A80ED0F0A704740
:10511000000000007047000070B555A001F026F9AE
:1051200061A001F023F952A001F020F96CA001F078
:105130001DF978A001F01AF9844D85A0A96E01F03F
:1051400015F9686FFBF771FA41EC100B86A053EC70
:10515000102B01F00BF9286FFBF767FA41EC100BED
:1051600089A053EC102B01F001F98F4C206AFBF75A
:105170005CFA41EC100B8DA053EC102B01F0F6F80B
:10518000686EFBF752FA41EC100B8FA053EC102B1A
:1051900001F0ECF8EA6E012A68D092A192A001F029
:1051A000E5F899A001F0E2F8A068FBF73EFA41ECBF
:1051B000100BA3A053EC102B01F0D8F8E068FBF71C
:1051C00034FA41EC100BA5A053EC102B01F0CEF8F3
:1051D0002069FBF72AFA41EC100BA7A053EC102B27
:1051E00001F0C4F86069FBF720FA41EC100BA9A0AC
:1051F00053EC102B01F0BAF8A069FBF716FA41EC5A
:10520000100BABA053EC102B01F0B0F86068FBF76B
:105210000CFA41EC100BADA053EC102B01F0A6F8EA
:10522000B2A001F0A3F86869FBF7FFF941EC100B9D
:10523000BCA053EC102B01F099F8A869FBF7F5F925
:1052400041EC100BBEA053EC102B01F08FF8E86975
:10525000FBF7EBF941EC100BC0A053EC102B01F065
:1052600085F8BDE8704002A001F080B8C2A195E7C2
:105270003D3D3D3D3D3D3D3D3D3D3D3D3D3D3D3D5E
:105280003D3D3D3D3D3D3D3D3D3D3D3D3D3D3D3D4E
:105290003D3D3D3D3D3D3D3D3D3D3D3D3D3D3D3D3E
:1052A0003D3D0D0A0000000020202020202020206D
:1052B000205B464F43204D6F746F722043616C69D1
:1052C00062726174696F6E2046696E6973686564A5
:1052D0005D2020202020202020200D0A000000003A
:1052E00053746174757320202020202020202020FA
:1052F000203A2043616C6962726174656420416E7A
:105300006420536176656420746F20466C61736815
:105310000D0A00002D2D2D2D2D2D2D2D2D2D2D2D5A
:105320002D2D2D2D202020204D4F544F5220504107
:105330005241202020202D2D2D2D2D2D2D2D2D2D98
:105340002D2D2D2D2D2D0D0A00000000E005002033
:10535000506F6C65205061697273202020202020DE
:10536000203A2025640D0A0050686173652052655B
:1053700073697374616E6365203A20252E3466204C
:105380004F686D0D0A0000005A65726F20456C650C
:105390006320416E676C6520203A20252E346620FC
:1053A0005261640D0A000000B0050020566F6C7455
:1053B00061676520416C69676E202020203A2025B6
:1053C0002E346620560D0A00506F77657220537593
:1053D00070706C7920566F6C203A20252E32662032
:1053E000560D0A004343570053656E736F72204495
:1053F0006972656374202020203A202573202825B7
:105400006C64290D0A0000002D2D2D2D2D2D2D2D24
:105410002D2D2D2D2D2D2D2D202020434F4E54523E
:105420004F4C20504152412020202D2D2D2D2D2D2F
:105430002D2D2D2D2D2D2D2D2D2D0D0A0000000093
:10544000504944204B702020202020202020202064
:10545000203A20252E34660D0A00000050494420D1
:105460004B6920202020202020202020203A2025A9
:105470002E34660D0A000000504944204B64202061
:105480002020202020202020203A20252E34660DA8
:105490000A0000004C696D6974204D617820566FD8
:1054A0006C202020203A20252E32660D0A000000B4
:1054B0004C696D6974204D696E20566F6C202020F8
:1054C000203A20252E32660D0A0000005A65726FC0
:1054D00020506F7320284D6563682920203A2025CD
:1054E0002E3466205261640D0A0000002D2D2D2DF2
:1054F0002D2D2D2D2D2D2D2D2D2D2D2D2020202010
:105500004144432053454E534F52202020202D2DFF
:105510002D2D2D2D2D2D2D2D2D2D2D2D2D2D0D0AFE
:105520000000000043757272204F66667365742038
:1055300055202020203A20252E346620560D0A00C2
:1055400043757272204F6666736574205620202062
:10555000203A20252E346620560D0A0043757272BB
:10556000204F66667365742057202020203A20253E
:105570002E346620560D0A00435700002DE9F843EB
:10558000044640684FF48276154689464FF400473A
:105590004FF48068B04209D1A068B84201D04045BC
:1055A00004D12068016821F0400101604B460022CF
:1055B00080212046009500F0AFF880B96068B042C5
:1055C00014D1A068B84201D040450FD14B4600220B
:1055D0004FF4C0612046009500F02EF830B1206EE7
:1055E00040F0200020660320BDE8F8830020FBE7A0
:1055F000F8B515460E460B460092044600224FF4BD
:10560000C05100F019F888B93346002280212046A5
:10561000009500F081F848B9334600224FF4C0618C
:105620002046009500F008F8002804D0206E40F0D5
:10563000200020660320F8BD2DE9FE4F4FF0000A40
:10564000984617460E4604460C9D8DF804A0FDF7BB
:1056500035FA411BA8EB0105FDF730FA81462068B9
:105660004FF4C06B0C3002902A480068C0EBC000B9
:1056700000EB8000000D6843009016E05E4506D107
:105680002FB9029800788DF804009DF80400B8F155
:10569000FF3F0AD0FDF712FAA0EB0900A8420CD296
:1056A0005DB1009898B3401E00902068806830403B
:1056B000B842E3D10020BDE8FE8F2068416821F0A8
:1056C000E00141606068B0F5827F0BD1A068B0F561
:1056D000004F02D0B0F5806F04D12068016821F03E
:1056E00040010160A06AB0F5005F09D1206801683F
:1056F00021F4005101602068016841F4005101600B
:10570000012084F85D0084F85CA00320D3E7FFE764
:105710000025CAE7300000202DE9F8431E469146D7
:1057200088460446089DFDF7C9F9401B351AFDF768
:10573000C5F9074626480068C0F3CB3068430AE045
:10574000701C09D0FDF7BAF9C01BA8420FD275B181
:105750000098B8B3401E00902068816838EA0100C4
:1057600033D000214945EBD10020BDE8F883206803
:10577000416821F0E00141606068B0F5827F0BD1A3
:10578000A068B0F5004F02D0B0F5806F04D120685A
:10579000016821F040010160A06AB0F5005F09D105
:1057A0002068016821F4005101602068016841F41B
:1057B00000510160012084F85D00002084F85C0045
:1057C0000320D2E7FFE70025C6E70121CAE7000072
:1057D000300000207047000010B5134C13499FEDB6
:1057E000110A2DED028BD4ED130A9FED0D8A10EEF8
:1057F000900A884205DB00BF84ED140ABDEC028BE1
:1058000010BD10EE900A0A49884202D39FED090AA2
:10581000F2E780EE880A01F0ABF820EE080AEBE729
:10582000920A863EE4CB1641E0050020E4CB164107
:10583000E4CB16C1E4CB16C1704710B594B0382143
:105840006846FAF72FFD14210EA8FAF72BFD002069
:10585000FDF7EEF9012000900004019002200324DE
:10586000CDE9070404215522CDE90912CDE90B0148
:105870000D906846FDF7DAFC08B172B6FEE70F201E
:10588000CDE90E04002010901190129004210EA872
:10589000FDF778FB002801D072B6FEE714B010BD0A
:1058A0000248016841F470010160704788ED00E032
:1058B0000148FEF75CBC0000440400200148FEF7EC
:1058C00056BC0000840200200148FEF750BC0000D6
:1058D000D00200202DE9F0430268254B254D264ECD
:1058E000264C4FF08049984207D0484505D0A84241
:1058F00003D0B04201D0A04203D122F070074A6821
:105900003A431F4FDFF87CC0DFF87C8098420DD00F
:1059100048450BD0A84209D0B04207D0A04205D0DC
:10592000B84203D0604501D0404503D122F4407510
:10593000CA682A434D6922F080022A438D68C562F5
:105940000D688562984207D0A04205D0B84203D0C6
:10595000604501D0404501D109690163016841F00A
:1059600004010160012141610260BDE8F083000093
:10597000002C0140000400400008004000340140B9
:1059800000400140004401400048014010B501F0D2
:105990001F030121046A99408C430462016A9A4002
:1059A0001143016210BD10B501F00F030421046A18
:1059B00099408C430462016A9A401143016210BD10
:1059C00010B5846842EA032224F47F440A43224348
:1059D000826010BD8268034B1A400A4342F00701FF
:1059E000816070478FFFCFFF2DE9F043056A026A9F
:1059F00022F001020262436882691E4C25F0020512
:105A000022400C6822F0030214438A681B4E2A438A
:105A1000194D1B4FDFF86CC0DFF86C90A84207D01F
:105A2000B04205D0B84203D0604501D048450AD104
:105A3000D0F8208028F00408C0F8208022F0080860
:105A4000CA6842EA0802A84207D0B04205D0B8426C
:105A500003D0604501D0484505D14D6923F440731A
:105A60001D438B692B434360846149684163026233
:105A7000BDE8F0838FFFFEFF002C014000340140A1
:105A8000004001400044014000480140F0B5056A73
:105A9000026A22F010020262426883691A4C1C4EAC
:105AA00023400C6823F4407343EA042425F02003C8
:105AB0008D6843EA0513154DA84201D0B04208D1C4
:105AC000076A27F040070762CF6823F0800343EAA4
:105AD0000713A8420AD0B04208D00E4DA84205D004
